{
  "contractName": "Channels",
  "abi": [
    {
      "constant": true,
      "inputs": [],
      "name": "totalFee",
      "outputs": [
        {
          "name": "",
          "type": "uint256"
        }
      ],
      "payable": false,
      "stateMutability": "view",
      "type": "function",
      "signature": "0x1df4ccfc"
    },
    {
      "constant": true,
      "inputs": [],
      "name": "owner",
      "outputs": [
        {
          "name": "",
          "type": "address"
        }
      ],
      "payable": false,
      "stateMutability": "view",
      "type": "function",
      "signature": "0x8da5cb5b"
    },
    {
      "constant": true,
      "inputs": [],
      "name": "fee",
      "outputs": [
        {
          "name": "",
          "type": "uint256"
        }
      ],
      "payable": false,
      "stateMutability": "view",
      "type": "function",
      "signature": "0xddca3f43"
    },
    {
      "inputs": [],
      "payable": false,
      "stateMutability": "nonpayable",
      "type": "constructor",
      "signature": "constructor"
    },
    {
      "anonymous": false,
      "inputs": [
        {
          "indexed": true,
          "name": "channelId",
          "type": "bytes32"
        },
        {
          "indexed": true,
          "name": "sender",
          "type": "address"
        },
        {
          "indexed": true,
          "name": "recipient",
          "type": "address"
        },
        {
          "indexed": false,
          "name": "value",
          "type": "uint256"
        },
        {
          "indexed": false,
          "name": "fee",
          "type": "uint256"
        },
        {
          "indexed": false,
          "name": "canCanceledAt",
          "type": "uint256"
        },
        {
          "indexed": false,
          "name": "data",
          "type": "string"
        }
      ],
      "name": "ChannelOpened",
      "type": "event",
      "signature": "0xf6b33ddd95182db995d247da392f956736825c234081b0878b4fb8fe76b037fc"
    },
    {
      "anonymous": false,
      "inputs": [
        {
          "indexed": true,
          "name": "channelId",
          "type": "bytes32"
        },
        {
          "indexed": false,
          "name": "releasedToSender",
          "type": "uint256"
        },
        {
          "indexed": false,
          "name": "releasedToRecipient",
          "type": "uint256"
        }
      ],
      "name": "ChannelClosed",
      "type": "event",
      "signature": "0xaee37d46ae7638649199a415cd6d49cc67df520cf2c80210daac017e0df3ab98"
    },
    {
      "anonymous": false,
      "inputs": [
        {
          "indexed": false,
          "name": "channelId",
          "type": "bytes32"
        }
      ],
      "name": "ChannelCanceled",
      "type": "event",
      "signature": "0x91654f87374441c7815bdc817e86a33913837f466f0a5950adfa04af14a03242"
    },
    {
      "constant": false,
      "inputs": [
        {
          "name": "_fee",
          "type": "uint256"
        }
      ],
      "name": "setFee",
      "outputs": [],
      "payable": false,
      "stateMutability": "nonpayable",
      "type": "function",
      "signature": "0x69fe0e2d"
    },
    {
      "constant": false,
      "inputs": [
        {
          "name": "to",
          "type": "address"
        }
      ],
      "name": "withdrawTotalFee",
      "outputs": [],
      "payable": false,
      "stateMutability": "nonpayable",
      "type": "function",
      "signature": "0xfe607db7"
    },
    {
      "constant": false,
      "inputs": [
        {
          "name": "channelId",
          "type": "bytes32"
        },
        {
          "name": "recipient",
          "type": "address"
        },
        {
          "name": "timeout",
          "type": "uint256"
        },
        {
          "name": "data",
          "type": "string"
        }
      ],
      "name": "open",
      "outputs": [],
      "payable": true,
      "stateMutability": "payable",
      "type": "function",
      "signature": "0x1afd2842"
    },
    {
      "constant": false,
      "inputs": [
        {
          "name": "h",
          "type": "bytes32[2]"
        },
        {
          "name": "v",
          "type": "uint8[2]"
        },
        {
          "name": "r",
          "type": "bytes32[2]"
        },
        {
          "name": "s",
          "type": "bytes32[2]"
        },
        {
          "name": "channelId",
          "type": "bytes32"
        },
        {
          "name": "value",
          "type": "uint256"
        }
      ],
      "name": "closeByAll",
      "outputs": [],
      "payable": false,
      "stateMutability": "nonpayable",
      "type": "function",
      "signature": "0x3a212794"
    },
    {
      "constant": false,
      "inputs": [
        {
          "name": "h",
          "type": "bytes32"
        },
        {
          "name": "v",
          "type": "uint8"
        },
        {
          "name": "r",
          "type": "bytes32"
        },
        {
          "name": "s",
          "type": "bytes32"
        },
        {
          "name": "channelId",
          "type": "bytes32"
        },
        {
          "name": "value",
          "type": "uint256"
        }
      ],
      "name": "close",
      "outputs": [],
      "payable": false,
      "stateMutability": "nonpayable",
      "type": "function",
      "signature": "0xb64150d9"
    },
    {
      "constant": false,
      "inputs": [
        {
          "name": "channelId",
          "type": "bytes32"
        }
      ],
      "name": "cancel",
      "outputs": [],
      "payable": false,
      "stateMutability": "nonpayable",
      "type": "function",
      "signature": "0xc4d252f5"
    }
  ],
  "bytecode": "0x60806040526040805190810160405280601c81526020017f19457468657265756d205369676e6564204d6573736167653a0a3332000000008152506005908051906020019062000051929190620000ae565b503480156200005f57600080fd5b50336000806101000a81548173ffffffffffffffffffffffffffffffffffffffff021916908373ffffffffffffffffffffffffffffffffffffffff16021790555060026001819055506200015d565b828054600181600116156101000203166002900490600052602060002090601f016020900481019282601f10620000f157805160ff191683800117855562000122565b8280016001018555821562000122579182015b828111156200012157825182559160200191906001019062000104565b5b50905062000131919062000135565b5090565b6200015a91905b80821115620001565760008160009055506001016200013c565b5090565b90565b611210806200016d6000396000f300608060405260043610610099576000357c0100000000000000000000000000000000000000000000000000000000900463ffffffff1680631afd28421461009e5780631df4ccfc146101045780633a2127941461012f57806369fe0e2d146101925780638da5cb5b146101bf578063b64150d914610216578063c4d252f514610288578063ddca3f43146102b9578063fe607db7146102e4575b600080fd5b6101026004803603810190808035600019169060200190929190803573ffffffffffffffffffffffffffffffffffffffff16906020019092919080359060200190929190803590602001908201803590602001919091929391929390505050610327565b005b34801561011057600080fd5b50610119610614565b6040518082815260200191505060405180910390f35b34801561013b57600080fd5b506101906004803603810190808060400190919291929080604001909192919290806040019091929192908060400190919291929080356000191690602001909291908035906020019092919050505061061a565b005b34801561019e57600080fd5b506101bd600480360381019080803590602001909291905050506106f4565b005b3480156101cb57600080fd5b506101d4610768565b604051808273ffffffffffffffffffffffffffffffffffffffff1673ffffffffffffffffffffffffffffffffffffffff16815260200191505060405180910390f35b34801561022257600080fd5b506102866004803603810190808035600019169060200190929190803560ff1690602001909291908035600019169060200190929190803560001916906020019092919080356000191690602001909291908035906020019092919050505061078d565b005b34801561029457600080fd5b506102b76004803603810190808035600019169060200190929190505050610e9c565b005b3480156102c557600080fd5b506102ce6110c2565b6040518082815260200191505060405180910390f35b3480156102f057600080fd5b50610325600480360381019080803573ffffffffffffffffffffffffffffffffffffffff1690602001909291905050506110c8565b005b61032f611188565b600073ffffffffffffffffffffffffffffffffffffffff1660036000886000191660001916815260200190815260200160002060000160009054906101000a900473ffffffffffffffffffffffffffffffffffffffff1673ffffffffffffffffffffffffffffffffffffffff16141515610437576040517f08c379a000000000000000000000000000000000000000000000000000000000815260040180806020018281038252602f8152602001807f4368616e6e656c2077697468207468652073616d65206368616e6e656c49642081526020017f616c7265616479206578697374732e000000000000000000000000000000000081525060400191505060405180910390fd5b60a0604051908101604052803373ffffffffffffffffffffffffffffffffffffffff1681526020018673ffffffffffffffffffffffffffffffffffffffff168152602001348152602001600154815260200185420181525090508060036000886000191660001916815260200190815260200160002060008201518160000160006101000a81548173ffffffffffffffffffffffffffffffffffffffff021916908373ffffffffffffffffffffffffffffffffffffffff16021790555060208201518160010160006101000a81548173ffffffffffffffffffffffffffffffffffffffff021916908373ffffffffffffffffffffffffffffffffffffffff160217905550604082015181600201556060820151816003015560808201518160040155905050806020015173ffffffffffffffffffffffffffffffffffffffff16816000015173ffffffffffffffffffffffffffffffffffffffff1687600019167ff6b33ddd95182db995d247da392f956736825c234081b0878b4fb8fe76b037fc8460400151856060015186608001518989604051808681526020018581526020018481526020018060200182810382528484828181526020019250808284378201915050965050505050505060405180910390a4505050505050565b60025481565b61068386600060028110151561062c57fe5b60200201356000191686600060028110151561064457fe5b602002013560ff1685600060028110151561065b57fe5b60200201356000191687600060028110151561067357fe5b602002013560001916868661078d565b6106ec86600160028110151561069557fe5b6020020135600019168660016002811015156106ad57fe5b602002013560ff168560016002811015156106c457fe5b6020020135600019168760016002811015156106dc57fe5b602002013560001916868661078d565b505050505050565b6000809054906101000a900473ffffffffffffffffffffffffffffffffffffffff1673ffffffffffffffffffffffffffffffffffffffff163373ffffffffffffffffffffffffffffffffffffffff1614151561074f57600080fd5b60648110151561075e57600080fd5b8060018190555050565b6000809054906101000a900473ffffffffffffffffffffffffffffffffffffffff1681565b600080600080600080600080600360008b600019166000191681526020019081526020016000209750600073ffffffffffffffffffffffffffffffffffffffff168860000160009054906101000a900473ffffffffffffffffffffffffffffffffffffffff1673ffffffffffffffffffffffffffffffffffffffff161415151561081657600080fd5b8760020154965086891115151561082c57600080fd5b60058e604051602001808380546001816001161561010002031660029004801561088d5780601f1061086b57610100808354040283529182019161088d565b820191906000526020600020905b815481529060010190602001808311610879575b50508260001916600019168152602001925050506040516020818303038152906040526040518082805190602001908083835b6020831015156108e557805182526020820191506020810190506020830392506108c0565b6001836020036101000a038019825116818451168082178552505050505050905001915050604051809103902095506001868e8e8e604051600081526020016040526040518085600019166000191681526020018460ff1660ff1681526020018360001916600019168152602001826000191660001916815260200194505050505060206040516020810390808403906000865af115801561098b573d6000803e3d6000fd5b5050506020604051035194508760000160009054906101000a900473ffffffffffffffffffffffffffffffffffffffff1673ffffffffffffffffffffffffffffffffffffffff168573ffffffffffffffffffffffffffffffffffffffff161480610a4457508760010160009054906101000a900473ffffffffffffffffffffffffffffffffffffffff1673ffffffffffffffffffffffffffffffffffffffff168573ffffffffffffffffffffffffffffffffffffffff16145b1515610a4f57600080fd5b8989604051602001808360001916600019168152602001828152602001925050506040516020818303038152906040526040518082805190602001908083835b602083101515610ab45780518252602082019150602081019050602083039250610a8f565b6001836020036101000a038019825116818451168082178552505050505050905001915050604051809103902093508d600019168460001916141515610b88576040517f08c379a00000000000000000000000000000000000000000000000000000000081526004018080602001828103825260368152602001807f5369676e61747572652069732076616c69642062757420646f65736e2774206d81526020017f617463682074686520646174612070726f76696465640000000000000000000081525060400191505060405180910390fd5b600060046000866000191660001916815260200190815260200160002060009054906101000a900473ffffffffffffffffffffffffffffffffffffffff1673ffffffffffffffffffffffffffffffffffffffff161415610c41578460046000866000191660001916815260200190815260200160002060006101000a81548173ffffffffffffffffffffffffffffffffffffffff021916908373ffffffffffffffffffffffffffffffffffffffff160217905550610e8c565b8473ffffffffffffffffffffffffffffffffffffffff1660046000866000191660001916815260200190815260200160002060009054906101000a900473ffffffffffffffffffffffffffffffffffffffff1673ffffffffffffffffffffffffffffffffffffffff16141515610e8b5787600301549250610cc2898461116f565b89039150610cd28988038461116f565b89880303905080828803036002600082825401925050819055508760010160009054906101000a900473ffffffffffffffffffffffffffffffffffffffff1673ffffffffffffffffffffffffffffffffffffffff166108fc839081150290604051600060405180830381858888f19350505050158015610d56573d6000803e3d6000fd5b508760000160009054906101000a900473ffffffffffffffffffffffffffffffffffffffff1673ffffffffffffffffffffffffffffffffffffffff166108fc829081150290604051600060405180830381858888f19350505050158015610dc1573d6000803e3d6000fd5b50600360008b60001916600019168152602001908152602001600020600080820160006101000a81549073ffffffffffffffffffffffffffffffffffffffff02191690556001820160006101000a81549073ffffffffffffffffffffffffffffffffffffffff0219169055600282016000905560038201600090556004820160009055505089600019167faee37d46ae7638649199a415cd6d49cc67df520cf2c80210daac017e0df3ab988284604051808381526020018281526020019250505060405180910390a25b5b5050505050505050505050505050565b60006003600083600019166000191681526020019081526020016000209050600073ffffffffffffffffffffffffffffffffffffffff168160000160009054906101000a900473ffffffffffffffffffffffffffffffffffffffff1673ffffffffffffffffffffffffffffffffffffffff1614151515610f1b57600080fd5b8060000160009054906101000a900473ffffffffffffffffffffffffffffffffffffffff1673ffffffffffffffffffffffffffffffffffffffff163373ffffffffffffffffffffffffffffffffffffffff16141515610f7957600080fd5b42816004015411151515610f8c57600080fd5b8060000160009054906101000a900473ffffffffffffffffffffffffffffffffffffffff1673ffffffffffffffffffffffffffffffffffffffff166108fc82600201549081150290604051600060405180830381858888f19350505050158015610ffa573d6000803e3d6000fd5b50600360008360001916600019168152602001908152602001600020600080820160006101000a81549073ffffffffffffffffffffffffffffffffffffffff02191690556001820160006101000a81549073ffffffffffffffffffffffffffffffffffffffff021916905560028201600090556003820160009055600482016000905550507f91654f87374441c7815bdc817e86a33913837f466f0a5950adfa04af14a032428260405180826000191660001916815260200191505060405180910390a15050565b60015481565b6000809054906101000a900473ffffffffffffffffffffffffffffffffffffffff1673ffffffffffffffffffffffffffffffffffffffff163373ffffffffffffffffffffffffffffffffffffffff1614151561112357600080fd5b8073ffffffffffffffffffffffffffffffffffffffff166108fc6002549081150290604051600060405180830381858888f1935050505015801561116b573d6000803e3d6000fd5b5050565b6000606482840281151561117f57fe5b04905092915050565b60a060405190810160405280600073ffffffffffffffffffffffffffffffffffffffff168152602001600073ffffffffffffffffffffffffffffffffffffffff16815260200160008152602001600081526020016000815250905600a165627a7a72305820d8822c5179cb6d852e91ea2ee32afa80716726cbd784553074ad90f20e2fc18a0029",
  "source": "pragma solidity ^0.4.24;\n\ncontract Channels {\n\n    /*--- Structures ---*/\n    struct Channel {\n        address sender;\n        address recipient;\n        uint256 value;\n        uint256 fee;\n        uint256 canCanceledAt;\n    }\n\n    /*--- Events ---*/\n    event ChannelOpened(bytes32 indexed channelId, address indexed sender, address indexed recipient, uint256 value, uint256 fee, uint256 canCanceledAt, string data);\n    event ChannelClosed(bytes32 indexed  channelId, uint256 releasedToSender, uint256 releasedToRecipient);\n    event ChannelCanceled(bytes32 channelId);\n\n    /*--- Store ---*/\n    address public owner;\n    uint256 public fee;\n    uint256 public totalFee;\n\n    mapping(bytes32 => Channel) channels;\n    mapping(bytes32 => address) signatures;\n\n    /*--- Modifiers ---*/\n    modifier onlyOwner() {\n        require(msg.sender == owner);\n        _;\n    }\n\n    constructor() public {\n        owner = msg.sender;\n        fee = 2;\n    }\n\n    function setFee(uint256 _fee)\n    external onlyOwner {\n        require(_fee < 100);\n        fee = _fee;\n    }\n\n    function withdrawTotalFee(address to)\n    external onlyOwner {\n        to.transfer(totalFee);\n    }\n\n    function open(bytes32 channelId, address recipient, uint256 timeout, string data)\n    external payable {\n        require(channels[channelId].sender == address(0), \"Channel with the same channelId already exists.\");\n        Channel memory channel = Channel({\n            sender : msg.sender,\n            recipient : recipient,\n            value : msg.value,\n            fee : fee,\n            canCanceledAt : now + timeout\n        });\n        channels[channelId] = channel;\n        emit ChannelOpened(channelId, channel.sender, channel.recipient, channel.value, channel.fee, channel.canCanceledAt, data);\n    }\n\n    function closeByAll(bytes32[2] h, uint8[2] v, bytes32[2] r, bytes32[2] s, bytes32 channelId, uint value)\n    external {\n        close(h[0], v[0], s[0], r[0], channelId, value);\n        close(h[1], v[1], s[1], r[1], channelId, value);\n    }\n\n    bytes prefix = \"\\x19Ethereum Signed Message:\\n32\";\n\n    function close(bytes32 h, uint8 v, bytes32 r, bytes32 s, bytes32 channelId, uint256 value)\n    public {\n        Channel storage channel = channels[channelId];\n        require(channel.sender != address(0));\n\n        uint256 channelValue = channel.value;\n        require(value <= channelValue);\n\n        bytes32 prefixedHash = keccak256(abi.encodePacked(prefix, h));\n        address signer = ecrecover(prefixedHash, v, r, s);\n        require(signer == channel.sender || signer == channel.recipient);\n\n        bytes32 proof = keccak256(abi.encodePacked(channelId, value));\n        require(proof == h, \"Signature is valid but doesn't match the data provided\");\n\n        if (signatures[proof] == 0) {\n            signatures[proof] = signer;\n        } else if (signatures[proof] != signer) {\n            //channel completed, both signatures provided\n            uint256 channelFee = channel.fee;\n            uint256 toRecipient = value - getFeeAmount(value, channelFee);\n            uint256 toSender = (channelValue - value) - getFeeAmount(channelValue - value, channelFee);\n            totalFee += channelValue - toRecipient - toSender;\n            channel.recipient.transfer(toRecipient);\n            channel.sender.transfer(toSender);\n            delete channels[channelId];\n            emit ChannelClosed(channelId, toSender, toRecipient);\n        }\n    }\n\n    function cancel(bytes32 channelId) \n    external {\n        Channel storage channel = channels[channelId];\n        require(channel.sender != address(0));\n        require(msg.sender == channel.sender);\n        require(channel.canCanceledAt <= now);\n        channel.sender.transfer(channel.value);\n        delete channels[channelId];\n        emit ChannelCanceled(channelId);\n    }\n\n    function getFeeAmount(uint256 amount, uint256 feePercents)\n    private pure returns (uint256) {\n        return (amount * feePercents) / 100;\n    }\n   \n}",
  "sourcePath": "D:/Development/acuerdo-dapp/smart-contract/contracts/Channels.sol",
  "compiler": {
    "name": "solc",
    "version": "0.4.24+commit.e67f0147.Emscripten.clang"
  },
  "schemaVersion": "3.0.0-beta.0",
  "updatedAt": "2018-10-07T18:51:45.326Z"
}