{
  "contractName": "Channels",
  "abi": [
    {
      "constant": true,
      "inputs": [],
      "name": "totalFee",
      "outputs": [
        {
          "name": "",
          "type": "uint256"
        }
      ],
      "payable": false,
      "stateMutability": "view",
      "type": "function",
      "signature": "0x1df4ccfc"
    },
    {
      "constant": true,
      "inputs": [],
      "name": "owner",
      "outputs": [
        {
          "name": "",
          "type": "address"
        }
      ],
      "payable": false,
      "stateMutability": "view",
      "type": "function",
      "signature": "0x8da5cb5b"
    },
    {
      "constant": true,
      "inputs": [],
      "name": "fee",
      "outputs": [
        {
          "name": "",
          "type": "uint256"
        }
      ],
      "payable": false,
      "stateMutability": "view",
      "type": "function",
      "signature": "0xddca3f43"
    },
    {
      "inputs": [],
      "payable": false,
      "stateMutability": "nonpayable",
      "type": "constructor",
      "signature": "constructor"
    },
    {
      "anonymous": false,
      "inputs": [
        {
          "indexed": true,
          "name": "channelId",
          "type": "bytes32"
        },
        {
          "indexed": true,
          "name": "sender",
          "type": "address"
        },
        {
          "indexed": true,
          "name": "recipient",
          "type": "address"
        },
        {
          "indexed": false,
          "name": "value",
          "type": "uint256"
        },
        {
          "indexed": false,
          "name": "canCanceledAt",
          "type": "uint256"
        }
      ],
      "name": "ChannelOpened",
      "type": "event",
      "signature": "0x506f81b7a67b45bfbc6167fd087b3dd9b65b4531a2380ec406aab5b57ac62152"
    },
    {
      "anonymous": false,
      "inputs": [
        {
          "indexed": true,
          "name": "channelId",
          "type": "bytes32"
        },
        {
          "indexed": false,
          "name": "releasedToSender",
          "type": "uint256"
        },
        {
          "indexed": false,
          "name": "releasedToRecipient",
          "type": "uint256"
        }
      ],
      "name": "ChannelClosed",
      "type": "event",
      "signature": "0xaee37d46ae7638649199a415cd6d49cc67df520cf2c80210daac017e0df3ab98"
    },
    {
      "anonymous": false,
      "inputs": [
        {
          "indexed": false,
          "name": "channelId",
          "type": "bytes32"
        }
      ],
      "name": "ChannelCanceled",
      "type": "event",
      "signature": "0x91654f87374441c7815bdc817e86a33913837f466f0a5950adfa04af14a03242"
    },
    {
      "constant": false,
      "inputs": [
        {
          "name": "_fee",
          "type": "uint256"
        }
      ],
      "name": "setFee",
      "outputs": [],
      "payable": false,
      "stateMutability": "nonpayable",
      "type": "function",
      "signature": "0x69fe0e2d"
    },
    {
      "constant": false,
      "inputs": [
        {
          "name": "to",
          "type": "address"
        }
      ],
      "name": "withdrawTotalFee",
      "outputs": [],
      "payable": false,
      "stateMutability": "nonpayable",
      "type": "function",
      "signature": "0xfe607db7"
    },
    {
      "constant": false,
      "inputs": [
        {
          "name": "channelId",
          "type": "bytes32"
        },
        {
          "name": "recipient",
          "type": "address"
        },
        {
          "name": "timeout",
          "type": "uint256"
        }
      ],
      "name": "open",
      "outputs": [],
      "payable": true,
      "stateMutability": "payable",
      "type": "function",
      "signature": "0xfd745bce"
    },
    {
      "constant": false,
      "inputs": [
        {
          "name": "h",
          "type": "bytes32[2]"
        },
        {
          "name": "v",
          "type": "uint8[2]"
        },
        {
          "name": "r",
          "type": "bytes32[2]"
        },
        {
          "name": "s",
          "type": "bytes32[2]"
        },
        {
          "name": "channelId",
          "type": "bytes32"
        },
        {
          "name": "value",
          "type": "uint256"
        }
      ],
      "name": "closeByAll",
      "outputs": [],
      "payable": false,
      "stateMutability": "nonpayable",
      "type": "function",
      "signature": "0x3a212794"
    },
    {
      "constant": false,
      "inputs": [
        {
          "name": "h",
          "type": "bytes32"
        },
        {
          "name": "v",
          "type": "uint8"
        },
        {
          "name": "r",
          "type": "bytes32"
        },
        {
          "name": "s",
          "type": "bytes32"
        },
        {
          "name": "channelId",
          "type": "bytes32"
        },
        {
          "name": "value",
          "type": "uint256"
        }
      ],
      "name": "close",
      "outputs": [],
      "payable": false,
      "stateMutability": "nonpayable",
      "type": "function",
      "signature": "0xb64150d9"
    },
    {
      "constant": false,
      "inputs": [
        {
          "name": "channelId",
          "type": "bytes32"
        }
      ],
      "name": "cancel",
      "outputs": [],
      "payable": false,
      "stateMutability": "nonpayable",
      "type": "function",
      "signature": "0xc4d252f5"
    }
  ],
  "bytecode": "0x60806040526040805190810160405280601c81526020017f19457468657265756d205369676e6564204d6573736167653a0a3332000000008152506005908051906020019061004f9291906100b0565b5034801561005c57600080fd5b50336000806101000a81548173ffffffffffffffffffffffffffffffffffffffff021916908373ffffffffffffffffffffffffffffffffffffffff16021790555066038d7ea4c68000600181905550610155565b828054600181600116156101000203166002900490600052602060002090601f016020900481019282601f106100f157805160ff191683800117855561011f565b8280016001018555821561011f579182015b8281111561011e578251825591602001919060010190610103565b5b50905061012c9190610130565b5090565b61015291905b8082111561014e576000816000905550600101610136565b5090565b90565b61115c80620001656000396000f300608060405260043610610099576000357c0100000000000000000000000000000000000000000000000000000000900463ffffffff1680631df4ccfc1461009e5780633a212794146100c957806369fe0e2d1461012c5780638da5cb5b14610159578063b64150d9146101b0578063c4d252f514610222578063ddca3f4314610253578063fd745bce1461027e578063fe607db7146102cc575b600080fd5b3480156100aa57600080fd5b506100b361030f565b6040518082815260200191505060405180910390f35b3480156100d557600080fd5b5061012a60048036038101908080604001909192919290806040019091929192908060400190919291929080604001909192919290803560001916906020019092919080359060200190929190505050610315565b005b34801561013857600080fd5b50610157600480360381019080803590602001909291905050506103ef565b005b34801561016557600080fd5b5061016e610454565b604051808273ffffffffffffffffffffffffffffffffffffffff1673ffffffffffffffffffffffffffffffffffffffff16815260200191505060405180910390f35b3480156101bc57600080fd5b506102206004803603810190808035600019169060200190929190803560ff16906020019092919080356000191690602001909291908035600019169060200190929190803560001916906020019092919080359060200190929190505050610479565b005b34801561022e57600080fd5b506102516004803603810190808035600019169060200190929190505050610b4f565b005b34801561025f57600080fd5b50610268610d6d565b6040518082815260200191505060405180910390f35b6102ca6004803603810190808035600019169060200190929190803573ffffffffffffffffffffffffffffffffffffffff16906020019092919080359060200190929190505050610d73565b005b3480156102d857600080fd5b5061030d600480360381019080803573ffffffffffffffffffffffffffffffffffffffff169060200190929190505050611034565b005b60025481565b61037e86600060028110151561032757fe5b60200201356000191686600060028110151561033f57fe5b602002013560ff1685600060028110151561035657fe5b60200201356000191687600060028110151561036e57fe5b6020020135600019168686610479565b6103e786600160028110151561039057fe5b6020020135600019168660016002811015156103a857fe5b602002013560ff168560016002811015156103bf57fe5b6020020135600019168760016002811015156103d757fe5b6020020135600019168686610479565b505050505050565b6000809054906101000a900473ffffffffffffffffffffffffffffffffffffffff1673ffffffffffffffffffffffffffffffffffffffff163373ffffffffffffffffffffffffffffffffffffffff1614151561044a57600080fd5b8060018190555050565b6000809054906101000a900473ffffffffffffffffffffffffffffffffffffffff1681565b6000806000806000806003600089600019166000191681526020019081526020016000209550600073ffffffffffffffffffffffffffffffffffffffff168660000160009054906101000a900473ffffffffffffffffffffffffffffffffffffffff1673ffffffffffffffffffffffffffffffffffffffff16141515156104ff57600080fd5b8560020154945084871115151561051557600080fd5b60058c60405160200180838054600181600116156101000203166002900480156105765780601f10610554576101008083540402835291820191610576565b820191906000526020600020905b815481529060010190602001808311610562575b50508260001916600019168152602001925050506040516020818303038152906040526040518082805190602001908083835b6020831015156105ce57805182526020820191506020810190506020830392506105a9565b6001836020036101000a038019825116818451168082178552505050505050905001915050604051809103902093506001848c8c8c604051600081526020016040526040518085600019166000191681526020018460ff1660ff1681526020018360001916600019168152602001826000191660001916815260200194505050505060206040516020810390808403906000865af1158015610674573d6000803e3d6000fd5b5050506020604051035192508560000160009054906101000a900473ffffffffffffffffffffffffffffffffffffffff1673ffffffffffffffffffffffffffffffffffffffff168373ffffffffffffffffffffffffffffffffffffffff16148061072d57508560010160009054906101000a900473ffffffffffffffffffffffffffffffffffffffff1673ffffffffffffffffffffffffffffffffffffffff168373ffffffffffffffffffffffffffffffffffffffff16145b151561073857600080fd5b8787604051602001808360001916600019168152602001828152602001925050506040516020818303038152906040526040518082805190602001908083835b60208310151561079d5780518252602082019150602081019050602083039250610778565b6001836020036101000a038019825116818451168082178552505050505050905001915050604051809103902091508b600019168260001916141515610871576040517f08c379a00000000000000000000000000000000000000000000000000000000081526004018080602001828103825260368152602001807f5369676e61747572652069732076616c69642062757420646f65736e2774206d81526020017f617463682074686520646174612070726f76696465640000000000000000000081525060400191505060405180910390fd5b600060046000846000191660001916815260200190815260200160002060009054906101000a900473ffffffffffffffffffffffffffffffffffffffff1673ffffffffffffffffffffffffffffffffffffffff16141561092a578260046000846000191660001916815260200190815260200160002060006101000a81548173ffffffffffffffffffffffffffffffffffffffff021916908373ffffffffffffffffffffffffffffffffffffffff160217905550610b41565b8273ffffffffffffffffffffffffffffffffffffffff1660046000846000191660001916815260200190815260200160002060009054906101000a900473ffffffffffffffffffffffffffffffffffffffff1673ffffffffffffffffffffffffffffffffffffffff16141515610b405786850390508560010160009054906101000a900473ffffffffffffffffffffffffffffffffffffffff1673ffffffffffffffffffffffffffffffffffffffff166108fc889081150290604051600060405180830381858888f19350505050158015610a09573d6000803e3d6000fd5b506000811115610a7f578560000160009054906101000a900473ffffffffffffffffffffffffffffffffffffffff1673ffffffffffffffffffffffffffffffffffffffff166108fc829081150290604051600060405180830381858888f19350505050158015610a7d573d6000803e3d6000fd5b505b600360008960001916600019168152602001908152602001600020600080820160006101000a81549073ffffffffffffffffffffffffffffffffffffffff02191690556001820160006101000a81549073ffffffffffffffffffffffffffffffffffffffff021916905560028201600090556003820160009055505087600019167faee37d46ae7638649199a415cd6d49cc67df520cf2c80210daac017e0df3ab988289604051808381526020018281526020019250505060405180910390a25b5b505050505050505050505050565b60006003600083600019166000191681526020019081526020016000209050600073ffffffffffffffffffffffffffffffffffffffff168160000160009054906101000a900473ffffffffffffffffffffffffffffffffffffffff1673ffffffffffffffffffffffffffffffffffffffff1614151515610bce57600080fd5b8060000160009054906101000a900473ffffffffffffffffffffffffffffffffffffffff1673ffffffffffffffffffffffffffffffffffffffff163373ffffffffffffffffffffffffffffffffffffffff16141515610c2c57600080fd5b42816003015411151515610c3f57600080fd5b8060000160009054906101000a900473ffffffffffffffffffffffffffffffffffffffff1673ffffffffffffffffffffffffffffffffffffffff166108fc82600201549081150290604051600060405180830381858888f19350505050158015610cad573d6000803e3d6000fd5b50600360008360001916600019168152602001908152602001600020600080820160006101000a81549073ffffffffffffffffffffffffffffffffffffffff02191690556001820160006101000a81549073ffffffffffffffffffffffffffffffffffffffff02191690556002820160009055600382016000905550507f91654f87374441c7815bdc817e86a33913837f466f0a5950adfa04af14a032428260405180826000191660001916815260200191505060405180910390a15050565b60015481565b610d7b6110db565b600073ffffffffffffffffffffffffffffffffffffffff1660036000866000191660001916815260200190815260200160002060000160009054906101000a900473ffffffffffffffffffffffffffffffffffffffff1673ffffffffffffffffffffffffffffffffffffffff16141515610e83576040517f08c379a000000000000000000000000000000000000000000000000000000000815260040180806020018281038252602f8152602001807f4368616e6e656c2077697468207468652073616d65206368616e6e656c49642081526020017f616c7265616479206578697374732e000000000000000000000000000000000081525060400191505060405180910390fd5b6080604051908101604052803373ffffffffffffffffffffffffffffffffffffffff1681526020018473ffffffffffffffffffffffffffffffffffffffff1681526020016001543403815260200183420181525090508060036000866000191660001916815260200190815260200160002060008201518160000160006101000a81548173ffffffffffffffffffffffffffffffffffffffff021916908373ffffffffffffffffffffffffffffffffffffffff16021790555060208201518160010160006101000a81548173ffffffffffffffffffffffffffffffffffffffff021916908373ffffffffffffffffffffffffffffffffffffffff1602179055506040820151816002015560608201518160030155905050600154600260008282540192505081905550806020015173ffffffffffffffffffffffffffffffffffffffff16816000015173ffffffffffffffffffffffffffffffffffffffff1685600019167f506f81b7a67b45bfbc6167fd087b3dd9b65b4531a2380ec406aab5b57ac6215284604001518560600151604051808381526020018281526020019250505060405180910390a450505050565b6000809054906101000a900473ffffffffffffffffffffffffffffffffffffffff1673ffffffffffffffffffffffffffffffffffffffff163373ffffffffffffffffffffffffffffffffffffffff1614151561108f57600080fd5b8073ffffffffffffffffffffffffffffffffffffffff166108fc6002549081150290604051600060405180830381858888f193505050501580156110d7573d6000803e3d6000fd5b5050565b608060405190810160405280600073ffffffffffffffffffffffffffffffffffffffff168152602001600073ffffffffffffffffffffffffffffffffffffffff168152602001600081526020016000815250905600a165627a7a72305820b9dbbc53a978a2675c2430bbdd5319d7363583b1bd95eb535c7d75ff891390b10029",
  "source": "pragma solidity ^0.4.24;\n\ncontract Channels {\n\n    /*--- Structures ---*/\n    struct Channel {\n        address sender;\n        address recipient;\n        uint256 value;\n        uint256 canCanceledAt;\n    }\n\n    /*--- Events ---*/\n    event ChannelOpened(bytes32 indexed channelId, address indexed sender, address indexed recipient, uint256 value, uint256 canCanceledAt);\n    event ChannelClosed(bytes32 indexed  channelId, uint256 releasedToSender, uint256 releasedToRecipient);\n    event ChannelCanceled(bytes32 channelId);\n\n    /*--- Store ---*/\n    address public owner;\n    uint256 public fee;\n    uint256 public totalFee;\n\n    mapping(bytes32 => Channel) channels;\n    mapping(bytes32 => address) signatures;\n\n    /*--- Modifiers ---*/\n    modifier onlyOwner() {\n        require(msg.sender == owner);\n        _;\n    }\n\n    constructor() public {\n        owner = msg.sender;\n        fee = 1000000000000000;//0.001 ETH\n    }\n\n    function setFee(uint256 _fee)\n    external onlyOwner {\n        fee = _fee;\n    }\n\n    function withdrawTotalFee(address to)\n    external onlyOwner {\n        to.transfer(totalFee);\n    }\n\n    function open(bytes32 channelId, address recipient, uint256 timeout)\n    external payable {\n        require(channels[channelId].sender == address(0), \"Channel with the same channelId already exists.\");\n        Channel memory channel = Channel({\n            sender : msg.sender,\n            recipient : recipient,\n            value : msg.value - fee,\n            canCanceledAt : now + timeout\n        });\n        channels[channelId] = channel;\n        totalFee += fee;\n        emit ChannelOpened(channelId, channel.sender, channel.recipient, channel.value, channel.canCanceledAt);\n    }\n\n    function closeByAll(bytes32[2] h, uint8[2] v, bytes32[2] r, bytes32[2] s, bytes32 channelId, uint value)\n    external {\n        close(h[0], v[0], s[0], r[0], channelId, value);\n        close(h[1], v[1], s[1], r[1], channelId, value);\n    }\n\n    bytes prefix = \"\\x19Ethereum Signed Message:\\n32\";\n\n    function close(bytes32 h, uint8 v, bytes32 r, bytes32 s, bytes32 channelId, uint256 value)\n    public {\n        Channel storage channel = channels[channelId];\n        require(channel.sender != address(0));\n\n        uint256 channelValue = channel.value;\n        require(value <= channelValue);\n\n        bytes32 prefixedHash = keccak256(abi.encodePacked(prefix, h));\n        address signer = ecrecover(prefixedHash, v, r, s);\n        require(signer == channel.sender || signer == channel.recipient);\n\n        bytes32 proof = keccak256(abi.encodePacked(channelId, value));\n        require(proof == h, \"Signature is valid but doesn't match the data provided\");\n\n        if (signatures[proof] == 0) {\n            signatures[proof] = signer;\n        } else if (signatures[proof] != signer) {\n            //channel completed, both signatures provided\n            uint256 toSender = channelValue - value;\n            channel.recipient.transfer(value);\n            if(toSender > 0) {\n                channel.sender.transfer(toSender);\n            }\n            delete channels[channelId];\n            emit ChannelClosed(channelId, toSender, value);\n        }\n    }\n\n    function cancel(bytes32 channelId) \n    external {\n        Channel storage channel = channels[channelId];\n        require(channel.sender != address(0));\n        require(msg.sender == channel.sender);\n        require(channel.canCanceledAt <= now);\n        channel.sender.transfer(channel.value);\n        delete channels[channelId];\n        emit ChannelCanceled(channelId);\n    }\n   \n}",
  "sourcePath": "D:/Development/acuerdo-dapp/smart-contract/contracts/Channels.sol",
  "compiler": {
    "name": "solc",
    "version": "0.4.24+commit.e67f0147.Emscripten.clang"
  },
  "schemaVersion": "3.0.0-beta.0",
  "updatedAt": "2018-10-12T05:02:16.165Z"
}