{
  "contractName": "Channels",
  "abi": [
    {
      "constant": true,
      "inputs": [],
      "name": "totalFee",
      "outputs": [
        {
          "name": "",
          "type": "uint256"
        }
      ],
      "payable": false,
      "stateMutability": "view",
      "type": "function"
    },
    {
      "constant": true,
      "inputs": [],
      "name": "owner",
      "outputs": [
        {
          "name": "",
          "type": "address"
        }
      ],
      "payable": false,
      "stateMutability": "view",
      "type": "function"
    },
    {
      "constant": true,
      "inputs": [],
      "name": "fee",
      "outputs": [
        {
          "name": "",
          "type": "uint256"
        }
      ],
      "payable": false,
      "stateMutability": "view",
      "type": "function"
    },
    {
      "inputs": [],
      "payable": false,
      "stateMutability": "nonpayable",
      "type": "constructor"
    },
    {
      "anonymous": false,
      "inputs": [
        {
          "indexed": true,
          "name": "channelId",
          "type": "bytes32"
        },
        {
          "indexed": true,
          "name": "sender",
          "type": "address"
        },
        {
          "indexed": true,
          "name": "recipient",
          "type": "address"
        },
        {
          "indexed": false,
          "name": "value",
          "type": "uint256"
        },
        {
          "indexed": false,
          "name": "canCanceledAt",
          "type": "uint256"
        },
        {
          "indexed": false,
          "name": "feePayed",
          "type": "uint256"
        }
      ],
      "name": "ChannelOpened",
      "type": "event"
    },
    {
      "anonymous": false,
      "inputs": [
        {
          "indexed": true,
          "name": "channelId",
          "type": "bytes32"
        },
        {
          "indexed": false,
          "name": "refundToSender",
          "type": "uint256"
        },
        {
          "indexed": false,
          "name": "releasedToRecipient",
          "type": "uint256"
        }
      ],
      "name": "ChannelClosed",
      "type": "event"
    },
    {
      "anonymous": false,
      "inputs": [
        {
          "indexed": false,
          "name": "channelId",
          "type": "bytes32"
        }
      ],
      "name": "ChannelClosedByDispute",
      "type": "event"
    },
    {
      "anonymous": false,
      "inputs": [
        {
          "indexed": false,
          "name": "channelId",
          "type": "bytes32"
        }
      ],
      "name": "ChannelCanceled",
      "type": "event"
    },
    {
      "constant": false,
      "inputs": [
        {
          "name": "_fee",
          "type": "uint256"
        }
      ],
      "name": "setFee",
      "outputs": [],
      "payable": false,
      "stateMutability": "nonpayable",
      "type": "function"
    },
    {
      "constant": false,
      "inputs": [
        {
          "name": "to",
          "type": "address"
        }
      ],
      "name": "withdrawTotalFee",
      "outputs": [],
      "payable": false,
      "stateMutability": "nonpayable",
      "type": "function"
    },
    {
      "constant": false,
      "inputs": [
        {
          "name": "channelId",
          "type": "bytes32"
        },
        {
          "name": "recipient",
          "type": "address"
        },
        {
          "name": "timeout",
          "type": "uint256"
        }
      ],
      "name": "open",
      "outputs": [],
      "payable": true,
      "stateMutability": "payable",
      "type": "function"
    },
    {
      "constant": false,
      "inputs": [
        {
          "name": "h",
          "type": "bytes32"
        },
        {
          "name": "v",
          "type": "uint8"
        },
        {
          "name": "r",
          "type": "bytes32"
        },
        {
          "name": "s",
          "type": "bytes32"
        },
        {
          "name": "channelId",
          "type": "bytes32"
        },
        {
          "name": "value",
          "type": "uint256"
        }
      ],
      "name": "close",
      "outputs": [],
      "payable": false,
      "stateMutability": "nonpayable",
      "type": "function"
    },
    {
      "constant": false,
      "inputs": [
        {
          "name": "channelId",
          "type": "bytes32"
        }
      ],
      "name": "cancel",
      "outputs": [],
      "payable": false,
      "stateMutability": "nonpayable",
      "type": "function"
    },
    {
      "constant": true,
      "inputs": [
        {
          "name": "channelId",
          "type": "bytes32"
        },
        {
          "name": "value",
          "type": "uint256"
        }
      ],
      "name": "getPaymentId",
      "outputs": [
        {
          "name": "",
          "type": "bytes32"
        }
      ],
      "payable": false,
      "stateMutability": "pure",
      "type": "function"
    }
  ],
  "bytecode": "0x60806040526040805190810160405280601c81526020017f19457468657265756d205369676e6564204d6573736167653a0a3332000000008152506005908051906020019061004f9291906100b0565b5034801561005c57600080fd5b50336000806101000a81548173ffffffffffffffffffffffffffffffffffffffff021916908373ffffffffffffffffffffffffffffffffffffffff16021790555066038d7ea4c68000600181905550610155565b828054600181600116156101000203166002900490600052602060002090601f016020900481019282601f106100f157805160ff191683800117855561011f565b8280016001018555821561011f579182015b8281111561011e578251825591602001919060010190610103565b5b50905061012c9190610130565b5090565b61015291905b8082111561014e576000816000905550600101610136565b5090565b90565b611056806101646000396000f300608060405260043610610099576000357c0100000000000000000000000000000000000000000000000000000000900463ffffffff1680631df4ccfc1461009e57806369fe0e2d146100c957806377fec5c5146100f65780638da5cb5b1461014d578063b64150d9146101a4578063c4d252f514610216578063ddca3f4314610247578063fd745bce14610272578063fe607db7146102c0575b600080fd5b3480156100aa57600080fd5b506100b3610303565b6040518082815260200191505060405180910390f35b3480156100d557600080fd5b506100f460048036038101908080359060200190929190505050610309565b005b34801561010257600080fd5b5061012f60048036038101908080356000191690602001909291908035906020019092919050505061036e565b60405180826000191660001916815260200191505060405180910390f35b34801561015957600080fd5b5061016261040a565b604051808273ffffffffffffffffffffffffffffffffffffffff1673ffffffffffffffffffffffffffffffffffffffff16815260200191505060405180910390f35b3480156101b057600080fd5b506102146004803603810190808035600019169060200190929190803560ff1690602001909291908035600019169060200190929190803560001916906020019092919080356000191690602001909291908035906020019092919050505061042f565b005b34801561022257600080fd5b506102456004803603810190808035600019169060200190929190505050610a38565b005b34801561025357600080fd5b5061025c610c55565b6040518082815260200191505060405180910390f35b6102be6004803603810190808035600019169060200190929190803573ffffffffffffffffffffffffffffffffffffffff16906020019092919080359060200190929190505050610c5b565b005b3480156102cc57600080fd5b50610301600480360381019080803573ffffffffffffffffffffffffffffffffffffffff169060200190929190505050610f26565b005b60025481565b6000809054906101000a900473ffffffffffffffffffffffffffffffffffffffff1673ffffffffffffffffffffffffffffffffffffffff163373ffffffffffffffffffffffffffffffffffffffff1614151561036457600080fd5b8060018190555050565b60008282604051602001808360001916600019168152602001828152602001925050506040516020818303038152906040526040518082805190602001908083835b6020831015156103d557805182526020820191506020810190506020830392506103b0565b6001836020036101000a0380198251168184511680821785525050505050509050019150506040518091039020905092915050565b6000809054906101000a900473ffffffffffffffffffffffffffffffffffffffff1681565b6000806000806000806000600360008a600019166000191681526020019081526020016000209650600073ffffffffffffffffffffffffffffffffffffffff168760000160009054906101000a900473ffffffffffffffffffffffffffffffffffffffff1673ffffffffffffffffffffffffffffffffffffffff16141515156104b757600080fd5b8660000160009054906101000a900473ffffffffffffffffffffffffffffffffffffffff1673ffffffffffffffffffffffffffffffffffffffff163373ffffffffffffffffffffffffffffffffffffffff16148061056457508660010160009054906101000a900473ffffffffffffffffffffffffffffffffffffffff1673ffffffffffffffffffffffffffffffffffffffff163373ffffffffffffffffffffffffffffffffffffffff16145b151561056f57600080fd5b3373ffffffffffffffffffffffffffffffffffffffff168760000160009054906101000a900473ffffffffffffffffffffffffffffffffffffffff1673ffffffffffffffffffffffffffffffffffffffff16146105f0578660000160009054906101000a900473ffffffffffffffffffffffffffffffffffffffff16610616565b8660010160009054906101000a900473ffffffffffffffffffffffffffffffffffffffff165b95508660020154945084881115151561062e57600080fd5b60058d604051602001808380546001816001161561010002031660029004801561068f5780601f1061066d57610100808354040283529182019161068f565b820191906000526020600020905b81548152906001019060200180831161067b575b50508260001916600019168152602001925050506040516020818303038152906040526040518082805190602001908083835b6020831015156106e757805182526020820191506020810190506020830392506106c2565b6001836020036101000a038019825116818451168082178552505050505050905001915050604051809103902093506001848d8d8d604051600081526020016040526040518085600019166000191681526020018460ff1660ff1681526020018360001916600019168152602001826000191660001916815260200194505050505060206040516020810390808403906000865af115801561078d573d6000803e3d6000fd5b5050506020604051035192508573ffffffffffffffffffffffffffffffffffffffff168373ffffffffffffffffffffffffffffffffffffffff161415156107d357600080fd5b6107dd898961036e565b91508c600019168260001916141515610884576040517f08c379a00000000000000000000000000000000000000000000000000000000081526004018080602001828103825260368152602001807f5369676e61747572652069732076616c69642062757420646f65736e2774206d81526020017f617463682074686520646174612070726f76696465640000000000000000000081525060400191505060405180910390fd5b87850390508660010160009054906101000a900473ffffffffffffffffffffffffffffffffffffffff1673ffffffffffffffffffffffffffffffffffffffff166108fc899081150290604051600060405180830381858888f193505050501580156108f3573d6000803e3d6000fd5b506000811115610969578660000160009054906101000a900473ffffffffffffffffffffffffffffffffffffffff1673ffffffffffffffffffffffffffffffffffffffff166108fc829081150290604051600060405180830381858888f19350505050158015610967573d6000803e3d6000fd5b505b600360008a60001916600019168152602001908152602001600020600080820160006101000a81549073ffffffffffffffffffffffffffffffffffffffff02191690556001820160006101000a81549073ffffffffffffffffffffffffffffffffffffffff021916905560028201600090556003820160009055505088600019167faee37d46ae7638649199a415cd6d49cc67df520cf2c80210daac017e0df3ab98828a604051808381526020018281526020019250505060405180910390a250505050505050505050505050565b60006003600083600019166000191681526020019081526020016000209050600073ffffffffffffffffffffffffffffffffffffffff168160000160009054906101000a900473ffffffffffffffffffffffffffffffffffffffff1673ffffffffffffffffffffffffffffffffffffffff1614151515610ab757600080fd5b8060000160009054906101000a900473ffffffffffffffffffffffffffffffffffffffff1673ffffffffffffffffffffffffffffffffffffffff163373ffffffffffffffffffffffffffffffffffffffff16141515610b1557600080fd5b806003015442111515610b2757600080fd5b8060000160009054906101000a900473ffffffffffffffffffffffffffffffffffffffff1673ffffffffffffffffffffffffffffffffffffffff166108fc82600201549081150290604051600060405180830381858888f19350505050158015610b95573d6000803e3d6000fd5b50600360008360001916600019168152602001908152602001600020600080820160006101000a81549073ffffffffffffffffffffffffffffffffffffffff02191690556001820160006101000a81549073ffffffffffffffffffffffffffffffffffffffff02191690556002820160009055600382016000905550507f91654f87374441c7815bdc817e86a33913837f466f0a5950adfa04af14a032428260405180826000191660001916815260200191505060405180910390a15050565b60015481565b610c63610fd5565b600073ffffffffffffffffffffffffffffffffffffffff1660036000866000191660001916815260200190815260200160002060000160009054906101000a900473ffffffffffffffffffffffffffffffffffffffff1673ffffffffffffffffffffffffffffffffffffffff16141515610d6b576040517f08c379a000000000000000000000000000000000000000000000000000000000815260040180806020018281038252602f8152602001807f4368616e6e656c2077697468207468652073616d65206368616e6e656c49642081526020017f616c7265616479206578697374732e000000000000000000000000000000000081525060400191505060405180910390fd5b6080604051908101604052803373ffffffffffffffffffffffffffffffffffffffff1681526020018473ffffffffffffffffffffffffffffffffffffffff1681526020016001543403815260200183420181525090508060036000866000191660001916815260200190815260200160002060008201518160000160006101000a81548173ffffffffffffffffffffffffffffffffffffffff021916908373ffffffffffffffffffffffffffffffffffffffff16021790555060208201518160010160006101000a81548173ffffffffffffffffffffffffffffffffffffffff021916908373ffffffffffffffffffffffffffffffffffffffff1602179055506040820151816002015560608201518160030155905050600154600260008282540192505081905550806020015173ffffffffffffffffffffffffffffffffffffffff16816000015173ffffffffffffffffffffffffffffffffffffffff1685600019167f705401abfacf8fad9792d847e80f9f3f7c367ab3244281e27961807ec2df6ad38460400151856060015160015460405180848152602001838152602001828152602001935050505060405180910390a450505050565b6000809054906101000a900473ffffffffffffffffffffffffffffffffffffffff1673ffffffffffffffffffffffffffffffffffffffff163373ffffffffffffffffffffffffffffffffffffffff16141515610f8157600080fd5b8073ffffffffffffffffffffffffffffffffffffffff166108fc6002549081150290604051600060405180830381858888f19350505050158015610fc9573d6000803e3d6000fd5b50600060028190555050565b608060405190810160405280600073ffffffffffffffffffffffffffffffffffffffff168152602001600073ffffffffffffffffffffffffffffffffffffffff168152602001600081526020016000815250905600a165627a7a723058209ac56ce12048dfd92f4997552614f9be80e9faf464e67dae4c89106cc33492cb0029",
  "source": "pragma solidity ^0.4.24;\r\n\r\ncontract Channels {\r\n\r\n    /*--- Structures ---*/\r\n    struct Channel {\r\n        address sender;\r\n        address recipient;\r\n        uint256 value;\r\n        uint256 canCanceledAt;\r\n    }\r\n\r\n    /*--- Events ---*/\r\n    event ChannelOpened(bytes32 indexed channelId, address indexed sender, address indexed recipient, uint256 value, uint256 canCanceledAt, uint256 feePayed);\r\n    event ChannelClosed(bytes32 indexed channelId, uint256 refundToSender, uint256 releasedToRecipient);\r\n    event ChannelClosedByDispute(bytes32 channelId);\r\n    event ChannelCanceled(bytes32 channelId);\r\n\r\n\r\n    /*--- Store ---*/\r\n    address public owner;\r\n    uint256 public fee;\r\n    uint256 public totalFee;\r\n\r\n    mapping(bytes32 => Channel) channels;\r\n    mapping(bytes32 => address) signatures;\r\n\r\n    /*--- Modifiers ---*/\r\n    modifier onlyOwner() {\r\n        require(msg.sender == owner);\r\n        _;\r\n    }\r\n\r\n    constructor() public {\r\n        owner = msg.sender;\r\n        fee = 1000000000000000;\r\n        //0.001 ETH\r\n    }\r\n\r\n    function setFee(uint256 _fee)\r\n    external onlyOwner {\r\n        fee = _fee;\r\n    }\r\n\r\n    function withdrawTotalFee(address to)\r\n    external onlyOwner {\r\n        to.transfer(totalFee);\r\n        totalFee = 0;\r\n    }\r\n\r\n    function open(bytes32 channelId, address recipient, uint256 timeout)\r\n    external payable {\r\n        require(channels[channelId].sender == address(0), \"Channel with the same channelId already exists.\");\r\n        Channel memory channel = Channel({\r\n            sender : msg.sender,\r\n            recipient : recipient,\r\n            value : msg.value - fee,\r\n            canCanceledAt : now + timeout\r\n        });\r\n        channels[channelId] = channel;\r\n        totalFee += fee;\r\n        emit ChannelOpened(channelId, channel.sender, channel.recipient, channel.value, channel.canCanceledAt, fee);\r\n    }\r\n\r\n    bytes prefix = \"\\x19Ethereum Signed Message:\\n32\";\r\n\r\n    function close(bytes32 h, uint8 v, bytes32 r, bytes32 s, bytes32 channelId, uint256 value)\r\n    public {\r\n        Channel storage channel = channels[channelId];\r\n        require(channel.sender != address(0));\r\n        require(msg.sender == channel.sender || msg.sender == channel.recipient);\r\n        address signer = channel.sender == msg.sender ? channel.recipient : channel.sender;\r\n\r\n        uint256 channelValue = channel.value;\r\n        require(value <= channelValue);\r\n\r\n        bytes32 prefixedHash = keccak256(abi.encodePacked(prefix, h));\r\n        address actualSigner = ecrecover(prefixedHash, v, r, s);\r\n        require(actualSigner == signer);\r\n\r\n        bytes32 proof = getPaymentId(channelId, value);\r\n        require(proof == h, \"Signature is valid but doesn't match the data provided\");\r\n\r\n        uint256 toSender = channelValue - value;\r\n        channel.recipient.transfer(value);\r\n        if (toSender > 0) {\r\n            channel.sender.transfer(toSender);\r\n        }\r\n        delete channels[channelId];\r\n        emit ChannelClosed(channelId, toSender, value);\r\n    }\r\n\r\n    function cancel(bytes32 channelId)\r\n    external {\r\n        Channel storage channel = channels[channelId];\r\n        require(channel.sender != address(0));\r\n        require(msg.sender == channel.sender);\r\n        require(now > channel.canCanceledAt);\r\n        channel.sender.transfer(channel.value);\r\n        delete channels[channelId];\r\n        emit ChannelCanceled(channelId);\r\n    }\r\n\r\n    function getPaymentId(bytes32 channelId, uint256 value)\r\n    public pure returns (bytes32) {\r\n        return keccak256(abi.encodePacked(channelId, value));\r\n    }\r\n}",
  "sourcePath": "D:\\Development\\acuerdo-dapp\\smart-contract\\contracts\\Channels.sol",
  "compiler": {
    "name": "solc",
    "version": "0.4.24+commit.e67f0147.Emscripten.clang"
  },
  "schemaVersion": "2.0.1",
  "updatedAt": "2018-11-21T17:51:43.675Z"
}