{
  "contractName": "Channels",
  "abi": [
    {
      "constant": true,
      "inputs": [],
      "name": "totalFee",
      "outputs": [
        {
          "name": "",
          "type": "uint256"
        }
      ],
      "payable": false,
      "stateMutability": "view",
      "type": "function",
      "signature": "0x1df4ccfc"
    },
    {
      "constant": true,
      "inputs": [],
      "name": "owner",
      "outputs": [
        {
          "name": "",
          "type": "address"
        }
      ],
      "payable": false,
      "stateMutability": "view",
      "type": "function",
      "signature": "0x8da5cb5b"
    },
    {
      "constant": true,
      "inputs": [],
      "name": "fee",
      "outputs": [
        {
          "name": "",
          "type": "uint256"
        }
      ],
      "payable": false,
      "stateMutability": "view",
      "type": "function",
      "signature": "0xddca3f43"
    },
    {
      "inputs": [],
      "payable": false,
      "stateMutability": "nonpayable",
      "type": "constructor",
      "signature": "constructor"
    },
    {
      "anonymous": false,
      "inputs": [
        {
          "indexed": true,
          "name": "channelId",
          "type": "bytes32"
        },
        {
          "indexed": true,
          "name": "sender",
          "type": "address"
        },
        {
          "indexed": true,
          "name": "recipient",
          "type": "address"
        },
        {
          "indexed": false,
          "name": "value",
          "type": "uint256"
        },
        {
          "indexed": false,
          "name": "canCanceledAt",
          "type": "uint256"
        },
        {
          "indexed": false,
          "name": "feePayed",
          "type": "uint256"
        }
      ],
      "name": "ChannelOpened",
      "type": "event",
      "signature": "0x705401abfacf8fad9792d847e80f9f3f7c367ab3244281e27961807ec2df6ad3"
    },
    {
      "anonymous": false,
      "inputs": [
        {
          "indexed": true,
          "name": "channelId",
          "type": "bytes32"
        },
        {
          "indexed": false,
          "name": "refundToSender",
          "type": "uint256"
        },
        {
          "indexed": false,
          "name": "releasedToRecipient",
          "type": "uint256"
        }
      ],
      "name": "ChannelClosed",
      "type": "event",
      "signature": "0xaee37d46ae7638649199a415cd6d49cc67df520cf2c80210daac017e0df3ab98"
    },
    {
      "anonymous": false,
      "inputs": [
        {
          "indexed": false,
          "name": "channelId",
          "type": "bytes32"
        }
      ],
      "name": "ChannelClosedByDispute",
      "type": "event",
      "signature": "0x8cabed1b1759b5e6de54f5dc84d902088fb07946daf821511328fff2fb27e57a"
    },
    {
      "anonymous": false,
      "inputs": [
        {
          "indexed": false,
          "name": "channelId",
          "type": "bytes32"
        }
      ],
      "name": "ChannelCanceled",
      "type": "event",
      "signature": "0x91654f87374441c7815bdc817e86a33913837f466f0a5950adfa04af14a03242"
    },
    {
      "constant": false,
      "inputs": [
        {
          "name": "_fee",
          "type": "uint256"
        }
      ],
      "name": "setFee",
      "outputs": [],
      "payable": false,
      "stateMutability": "nonpayable",
      "type": "function",
      "signature": "0x69fe0e2d"
    },
    {
      "constant": false,
      "inputs": [
        {
          "name": "to",
          "type": "address"
        }
      ],
      "name": "withdrawTotalFee",
      "outputs": [],
      "payable": false,
      "stateMutability": "nonpayable",
      "type": "function",
      "signature": "0xfe607db7"
    },
    {
      "constant": false,
      "inputs": [
        {
          "name": "channelId",
          "type": "bytes32"
        },
        {
          "name": "recipient",
          "type": "address"
        },
        {
          "name": "timeout",
          "type": "uint256"
        }
      ],
      "name": "open",
      "outputs": [],
      "payable": true,
      "stateMutability": "payable",
      "type": "function",
      "signature": "0xfd745bce"
    },
    {
      "constant": false,
      "inputs": [
        {
          "name": "h",
          "type": "bytes32[2]"
        },
        {
          "name": "v",
          "type": "uint8[2]"
        },
        {
          "name": "r",
          "type": "bytes32[2]"
        },
        {
          "name": "s",
          "type": "bytes32[2]"
        },
        {
          "name": "channelId",
          "type": "bytes32"
        },
        {
          "name": "value",
          "type": "uint256"
        }
      ],
      "name": "closeByAll",
      "outputs": [],
      "payable": false,
      "stateMutability": "nonpayable",
      "type": "function",
      "signature": "0x3a212794"
    },
    {
      "constant": false,
      "inputs": [
        {
          "name": "h",
          "type": "bytes32"
        },
        {
          "name": "v",
          "type": "uint8"
        },
        {
          "name": "r",
          "type": "bytes32"
        },
        {
          "name": "s",
          "type": "bytes32"
        },
        {
          "name": "channelId",
          "type": "bytes32"
        },
        {
          "name": "value",
          "type": "uint256"
        }
      ],
      "name": "close",
      "outputs": [],
      "payable": false,
      "stateMutability": "nonpayable",
      "type": "function",
      "signature": "0xb64150d9"
    },
    {
      "constant": false,
      "inputs": [
        {
          "name": "channelId",
          "type": "bytes32"
        }
      ],
      "name": "cancel",
      "outputs": [],
      "payable": false,
      "stateMutability": "nonpayable",
      "type": "function",
      "signature": "0xc4d252f5"
    },
    {
      "constant": false,
      "inputs": [
        {
          "name": "channelId",
          "type": "bytes32"
        },
        {
          "name": "amountToSender",
          "type": "uint256"
        },
        {
          "name": "amountToRecipient",
          "type": "uint256"
        }
      ],
      "name": "resolveDispute",
      "outputs": [],
      "payable": false,
      "stateMutability": "nonpayable",
      "type": "function",
      "signature": "0xb75f1861"
    }
  ],
  "bytecode": "0x60806040526040805190810160405280601c81526020017f19457468657265756d205369676e6564204d6573736167653a0a3332000000008152506005908051906020019062000051929190620000b4565b503480156200005f57600080fd5b50336000806101000a81548173ffffffffffffffffffffffffffffffffffffffff021916908373ffffffffffffffffffffffffffffffffffffffff16021790555066038d7ea4c6800060018190555062000163565b828054600181600116156101000203166002900490600052602060002090601f016020900481019282601f10620000f757805160ff191683800117855562000128565b8280016001018555821562000128579182015b82811115620001275782518255916020019190600101906200010a565b5b5090506200013791906200013b565b5090565b6200016091905b808211156200015c57600081600090555060010162000142565b5090565b90565b61142780620001736000396000f3006080604052600436106100a4576000357c0100000000000000000000000000000000000000000000000000000000900463ffffffff1680631df4ccfc146100a95780633a212794146100d457806369fe0e2d146101375780638da5cb5b14610164578063b64150d9146101bb578063b75f18611461022d578063c4d252f514610272578063ddca3f43146102a3578063fd745bce146102ce578063fe607db71461031c575b600080fd5b3480156100b557600080fd5b506100be61035f565b6040518082815260200191505060405180910390f35b3480156100e057600080fd5b5061013560048036038101908080604001909192919290806040019091929192908060400190919291929080604001909192919290803560001916906020019092919080359060200190929190505050610365565b005b34801561014357600080fd5b506101626004803603810190808035906020019092919050505061043f565b005b34801561017057600080fd5b506101796104a4565b604051808273ffffffffffffffffffffffffffffffffffffffff1673ffffffffffffffffffffffffffffffffffffffff16815260200191505060405180910390f35b3480156101c757600080fd5b5061022b6004803603810190808035600019169060200190929190803560ff169060200190929190803560001916906020019092919080356000191690602001909291908035600019169060200190929190803590602001909291905050506104c9565b005b34801561023957600080fd5b5061027060048036038101908080356000191690602001909291908035906020019092919080359060200190929190505050610b9f565b005b34801561027e57600080fd5b506102a16004803603810190808035600019169060200190929190505050610e10565b005b3480156102af57600080fd5b506102b861102e565b6040518082815260200191505060405180910390f35b61031a6004803603810190808035600019169060200190929190803573ffffffffffffffffffffffffffffffffffffffff16906020019092919080359060200190929190505050611034565b005b34801561032857600080fd5b5061035d600480360381019080803573ffffffffffffffffffffffffffffffffffffffff1690602001909291905050506112ff565b005b60025481565b6103ce86600060028110151561037757fe5b60200201356000191686600060028110151561038f57fe5b602002013560ff168560006002811015156103a657fe5b6020020135600019168760006002811015156103be57fe5b60200201356000191686866104c9565b6104378660016002811015156103e057fe5b6020020135600019168660016002811015156103f857fe5b602002013560ff1685600160028110151561040f57fe5b60200201356000191687600160028110151561042757fe5b60200201356000191686866104c9565b505050505050565b6000809054906101000a900473ffffffffffffffffffffffffffffffffffffffff1673ffffffffffffffffffffffffffffffffffffffff163373ffffffffffffffffffffffffffffffffffffffff1614151561049a57600080fd5b8060018190555050565b6000809054906101000a900473ffffffffffffffffffffffffffffffffffffffff1681565b6000806000806000806003600089600019166000191681526020019081526020016000209550600073ffffffffffffffffffffffffffffffffffffffff168660000160009054906101000a900473ffffffffffffffffffffffffffffffffffffffff1673ffffffffffffffffffffffffffffffffffffffff161415151561054f57600080fd5b8560020154945084871115151561056557600080fd5b60058c60405160200180838054600181600116156101000203166002900480156105c65780601f106105a45761010080835404028352918201916105c6565b820191906000526020600020905b8154815290600101906020018083116105b2575b50508260001916600019168152602001925050506040516020818303038152906040526040518082805190602001908083835b60208310151561061e57805182526020820191506020810190506020830392506105f9565b6001836020036101000a038019825116818451168082178552505050505050905001915050604051809103902093506001848c8c8c604051600081526020016040526040518085600019166000191681526020018460ff1660ff1681526020018360001916600019168152602001826000191660001916815260200194505050505060206040516020810390808403906000865af11580156106c4573d6000803e3d6000fd5b5050506020604051035192508560000160009054906101000a900473ffffffffffffffffffffffffffffffffffffffff1673ffffffffffffffffffffffffffffffffffffffff168373ffffffffffffffffffffffffffffffffffffffff16148061077d57508560010160009054906101000a900473ffffffffffffffffffffffffffffffffffffffff1673ffffffffffffffffffffffffffffffffffffffff168373ffffffffffffffffffffffffffffffffffffffff16145b151561078857600080fd5b8787604051602001808360001916600019168152602001828152602001925050506040516020818303038152906040526040518082805190602001908083835b6020831015156107ed57805182526020820191506020810190506020830392506107c8565b6001836020036101000a038019825116818451168082178552505050505050905001915050604051809103902091508b6000191682600019161415156108c1576040517f08c379a00000000000000000000000000000000000000000000000000000000081526004018080602001828103825260368152602001807f5369676e61747572652069732076616c69642062757420646f65736e2774206d81526020017f617463682074686520646174612070726f76696465640000000000000000000081525060400191505060405180910390fd5b600060046000846000191660001916815260200190815260200160002060009054906101000a900473ffffffffffffffffffffffffffffffffffffffff1673ffffffffffffffffffffffffffffffffffffffff16141561097a578260046000846000191660001916815260200190815260200160002060006101000a81548173ffffffffffffffffffffffffffffffffffffffff021916908373ffffffffffffffffffffffffffffffffffffffff160217905550610b91565b8273ffffffffffffffffffffffffffffffffffffffff1660046000846000191660001916815260200190815260200160002060009054906101000a900473ffffffffffffffffffffffffffffffffffffffff1673ffffffffffffffffffffffffffffffffffffffff16141515610b905786850390508560010160009054906101000a900473ffffffffffffffffffffffffffffffffffffffff1673ffffffffffffffffffffffffffffffffffffffff166108fc889081150290604051600060405180830381858888f19350505050158015610a59573d6000803e3d6000fd5b506000811115610acf578560000160009054906101000a900473ffffffffffffffffffffffffffffffffffffffff1673ffffffffffffffffffffffffffffffffffffffff166108fc829081150290604051600060405180830381858888f19350505050158015610acd573d6000803e3d6000fd5b505b600360008960001916600019168152602001908152602001600020600080820160006101000a81549073ffffffffffffffffffffffffffffffffffffffff02191690556001820160006101000a81549073ffffffffffffffffffffffffffffffffffffffff021916905560028201600090556003820160009055505087600019167faee37d46ae7638649199a415cd6d49cc67df520cf2c80210daac017e0df3ab988289604051808381526020018281526020019250505060405180910390a25b5b505050505050505050505050565b60008060009054906101000a900473ffffffffffffffffffffffffffffffffffffffff1673ffffffffffffffffffffffffffffffffffffffff163373ffffffffffffffffffffffffffffffffffffffff16141515610bfc57600080fd5b6003600085600019166000191681526020019081526020016000209050600073ffffffffffffffffffffffffffffffffffffffff168160000160009054906101000a900473ffffffffffffffffffffffffffffffffffffffff1673ffffffffffffffffffffffffffffffffffffffff1614151515610c7957600080fd5b8060000160009054906101000a900473ffffffffffffffffffffffffffffffffffffffff1673ffffffffffffffffffffffffffffffffffffffff166108fc849081150290604051600060405180830381858888f19350505050158015610ce3573d6000803e3d6000fd5b508060010160009054906101000a900473ffffffffffffffffffffffffffffffffffffffff1673ffffffffffffffffffffffffffffffffffffffff166108fc839081150290604051600060405180830381858888f19350505050158015610d4e573d6000803e3d6000fd5b50600360008560001916600019168152602001908152602001600020600080820160006101000a81549073ffffffffffffffffffffffffffffffffffffffff02191690556001820160006101000a81549073ffffffffffffffffffffffffffffffffffffffff02191690556002820160009055600382016000905550507f8cabed1b1759b5e6de54f5dc84d902088fb07946daf821511328fff2fb27e57a8460405180826000191660001916815260200191505060405180910390a150505050565b60006003600083600019166000191681526020019081526020016000209050600073ffffffffffffffffffffffffffffffffffffffff168160000160009054906101000a900473ffffffffffffffffffffffffffffffffffffffff1673ffffffffffffffffffffffffffffffffffffffff1614151515610e8f57600080fd5b8060000160009054906101000a900473ffffffffffffffffffffffffffffffffffffffff1673ffffffffffffffffffffffffffffffffffffffff163373ffffffffffffffffffffffffffffffffffffffff16141515610eed57600080fd5b42816003015411151515610f0057600080fd5b8060000160009054906101000a900473ffffffffffffffffffffffffffffffffffffffff1673ffffffffffffffffffffffffffffffffffffffff166108fc82600201549081150290604051600060405180830381858888f19350505050158015610f6e573d6000803e3d6000fd5b50600360008360001916600019168152602001908152602001600020600080820160006101000a81549073ffffffffffffffffffffffffffffffffffffffff02191690556001820160006101000a81549073ffffffffffffffffffffffffffffffffffffffff02191690556002820160009055600382016000905550507f91654f87374441c7815bdc817e86a33913837f466f0a5950adfa04af14a032428260405180826000191660001916815260200191505060405180910390a15050565b60015481565b61103c6113a6565b600073ffffffffffffffffffffffffffffffffffffffff1660036000866000191660001916815260200190815260200160002060000160009054906101000a900473ffffffffffffffffffffffffffffffffffffffff1673ffffffffffffffffffffffffffffffffffffffff16141515611144576040517f08c379a000000000000000000000000000000000000000000000000000000000815260040180806020018281038252602f8152602001807f4368616e6e656c2077697468207468652073616d65206368616e6e656c49642081526020017f616c7265616479206578697374732e000000000000000000000000000000000081525060400191505060405180910390fd5b6080604051908101604052803373ffffffffffffffffffffffffffffffffffffffff1681526020018473ffffffffffffffffffffffffffffffffffffffff1681526020016001543403815260200183420181525090508060036000866000191660001916815260200190815260200160002060008201518160000160006101000a81548173ffffffffffffffffffffffffffffffffffffffff021916908373ffffffffffffffffffffffffffffffffffffffff16021790555060208201518160010160006101000a81548173ffffffffffffffffffffffffffffffffffffffff021916908373ffffffffffffffffffffffffffffffffffffffff1602179055506040820151816002015560608201518160030155905050600154600260008282540192505081905550806020015173ffffffffffffffffffffffffffffffffffffffff16816000015173ffffffffffffffffffffffffffffffffffffffff1685600019167f705401abfacf8fad9792d847e80f9f3f7c367ab3244281e27961807ec2df6ad38460400151856060015160015460405180848152602001838152602001828152602001935050505060405180910390a450505050565b6000809054906101000a900473ffffffffffffffffffffffffffffffffffffffff1673ffffffffffffffffffffffffffffffffffffffff163373ffffffffffffffffffffffffffffffffffffffff1614151561135a57600080fd5b8073ffffffffffffffffffffffffffffffffffffffff166108fc6002549081150290604051600060405180830381858888f193505050501580156113a2573d6000803e3d6000fd5b5050565b608060405190810160405280600073ffffffffffffffffffffffffffffffffffffffff168152602001600073ffffffffffffffffffffffffffffffffffffffff168152602001600081526020016000815250905600a165627a7a72305820c3d442001af185ee5efdc7b6a9caeccf921c5677d8dece5ccaf0ee8ffb61c38b0029",
  "source": "pragma solidity ^0.4.24;\n\ncontract Channels {\n\n    /*--- Structures ---*/\n    struct Channel {\n        address sender;\n        address recipient;\n        uint256 value;\n        uint256 canCanceledAt;\n    }\n\n    /*--- Events ---*/\n    event ChannelOpened(bytes32 indexed channelId, address indexed sender, address indexed recipient, uint256 value, uint256 canCanceledAt, uint256 feePayed);\n    event ChannelClosed(bytes32 indexed  channelId, uint256 refundToSender, uint256 releasedToRecipient);\n    event ChannelClosedByDispute(bytes32 channelId);\n    event ChannelCanceled(bytes32 channelId);\n    \n\n    /*--- Store ---*/\n    address public owner;\n    uint256 public fee;\n    uint256 public totalFee;\n\n    mapping(bytes32 => Channel) channels;\n    mapping(bytes32 => address) signatures;\n\n    /*--- Modifiers ---*/\n    modifier onlyOwner() {\n        require(msg.sender == owner);\n        _;\n    }\n\n    constructor() public {\n        owner = msg.sender;\n        fee = 1000000000000000;//0.001 ETH\n    }\n\n    function setFee(uint256 _fee)\n    external onlyOwner {\n        fee = _fee;\n    }\n\n    function withdrawTotalFee(address to)\n    external onlyOwner {\n        to.transfer(totalFee);\n    }\n\n    function open(bytes32 channelId, address recipient, uint256 timeout)\n    external payable {\n        require(channels[channelId].sender == address(0), \"Channel with the same channelId already exists.\");\n        Channel memory channel = Channel({\n            sender : msg.sender,\n            recipient : recipient,\n            value : msg.value - fee,\n            canCanceledAt : now + timeout\n        });\n        channels[channelId] = channel;\n        totalFee += fee;\n        emit ChannelOpened(channelId, channel.sender, channel.recipient, channel.value, channel.canCanceledAt, fee);\n    }\n\n    function closeByAll(bytes32[2] h, uint8[2] v, bytes32[2] r, bytes32[2] s, bytes32 channelId, uint value)\n    external {\n        close(h[0], v[0], s[0], r[0], channelId, value);\n        close(h[1], v[1], s[1], r[1], channelId, value);\n    }\n\n    bytes prefix = \"\\x19Ethereum Signed Message:\\n32\";\n\n    function close(bytes32 h, uint8 v, bytes32 r, bytes32 s, bytes32 channelId, uint256 value)\n    public {\n        Channel storage channel = channels[channelId];\n        require(channel.sender != address(0));\n\n        uint256 channelValue = channel.value;\n        require(value <= channelValue);\n\n        bytes32 prefixedHash = keccak256(abi.encodePacked(prefix, h));\n        address signer = ecrecover(prefixedHash, v, r, s);\n        require(signer == channel.sender || signer == channel.recipient);\n\n        bytes32 proof = keccak256(abi.encodePacked(channelId, value));\n        require(proof == h, \"Signature is valid but doesn't match the data provided\");\n\n        if (signatures[proof] == 0) {\n            signatures[proof] = signer;\n        } else if (signatures[proof] != signer) {\n            //channel completed, both signatures provided\n            uint256 toSender = channelValue - value;\n            channel.recipient.transfer(value);\n            if(toSender > 0) {\n                channel.sender.transfer(toSender);\n            }\n            delete channels[channelId];\n            emit ChannelClosed(channelId, toSender, value);\n        }\n    }\n\n    function cancel(bytes32 channelId) \n    external {\n        Channel storage channel = channels[channelId];\n        require(channel.sender != address(0));\n        require(msg.sender == channel.sender);\n        require(channel.canCanceledAt <= now);\n        channel.sender.transfer(channel.value);\n        delete channels[channelId];\n        emit ChannelCanceled(channelId);\n    }\n\n    function resolveDispute(bytes32 channelId, uint256 amountToSender, uint256 amountToRecipient)\n    onlyOwner external {\n        Channel storage channel = channels[channelId];\n        require(channel.sender != address(0));\n        channel.sender.transfer(amountToSender);\n        channel.recipient.transfer(amountToRecipient);\n        delete channels[channelId];\n        emit ChannelClosedByDispute(channelId);\n    }\n   \n}",
  "sourcePath": "D:/Development/acuerdo-dapp/smart-contract/contracts/Channels.sol",
  "compiler": {
    "name": "solc",
    "version": "0.4.24+commit.e67f0147.Emscripten.clang"
  },
  "schemaVersion": "3.0.0-beta.0",
  "updatedAt": "2018-10-14T19:21:10.595Z"
}